:020000041000EA
:101000004805002019100010000000009110001089
:1010100000040100000100001049114A114B00F0CA
:1010200016F8114880471149114A124B00F00FF889
:101030001149124A124B00F00AF81249124A0020D4
:10104000521A02DD043A8850FCDC104880479B1A93
:1010500003DD043BC858D050FBDC7047201400105F
:101060000C000020440100208712001058150010C9
:10107000480500204C0500205C1500104C050020A0
:101080004C0500204C0500204C05002031120010BA
:10109000FEE70000034C044D25607047014C034DF2
:1010A0002560704724000140C0000000C30000001C
:1010B00000B5FFF7EFFF114C114D25602568114E6B
:1010C0003542FBD1FFF7EAFF0C4C25680E4E2E404F
:1010D000360A0E4F2F403F00002E0BD00C4CA401BF
:1010E0003602F6192000310000F04DF84000094C9E
:1010F000206000BD6408074D2C6000BD0003014066
:101100000001F13F0000004000FF0000FF00000070
:1011100000A861004805002000B5134B1C00134DCA
:101120002D6845436D18AD006419266800BD104C4C
:101130002568104E266025680F4EF6002E43266067
:1011400025680E4C256001260D4F2660276026601D
:10115000276026602760266027603E432660266061
:101160002660266070470000941200105C13001087
:101170001000044000000080100000000400044043
:101180000000010070477CB5002835D0002933D01D
:10119000814231D8884232D0012933D002464B1ED9
:1011A00019420BD10B0000245B0801D20134FBE78C
:1011B00002464B1EE0401A4011007CBD02460B4621
:1011C0000024002501265B000DD201349A42FAD892
:1011D0005B08013CA640AD19D21A8A4209D30B0024
:1011E00000240126EFE75B080126F60733430126BA
:1011F000F0E7280011007CBD002000217CBD01200B
:1012000000217CBD00217CBD054C2568054E354381
:101210002560054C2568054E354325607047000064
:1012200008000540001000004800054000080000CC
:10123000012010481049FFF7A6FF10481049FFF79A
:10124000A2FF002005211022FFF766FF01200B21DD
:101250001022FFF761FF02200E211022FFF75CFF32
:10126000012009211022FFF757FF00F00BF8FFF7CC
:101270005EFF704733A50A00BB010000FFFFFFFFC0
:1012800039000000704700B5FFF7BEFFFFF710FF01
:1012900000BD00000000000001000000020000008E
:1012A000030000000400000005000000060000002C
:1012B0000700000008000000090000000A0000000C
:1012C0000B0000000C0000000D0000000E000000EC
:1012D0000F000000000000000100000002000000FC
:1012E000030000000400000005000000FFFFFFFFF6
:1012F000FFFFFFFFFFFFFFFFFFFFFFFFFFFFFFFFFE
:10130000FFFFFFFFFFFFFFFFFFFFFFFFFFFFFFFFED
:10131000FFFFFFFF000000000100000002000000CE
:1013200003000000040000000500000006000000AB
:101330000700000008000000090000000A0000008B
:101340000B000000FFFFFFFFFFFFFFFFFFFFFFFF9E
:10135000FFFFFFFFC0000000300000001000000091
:1013600003000000000004400001044000020440AB
:1013700000000000000000000400044004010440DC
:1013800004020440000000000000000010000440BF
:1013900014000440180004401C00044010010440E4
:1013A00014010440FFFFFFFFFFFFFFFF1002044096
:1013B0001402044018020440FFFFFFFF3000000049
:1013C0000C00000060000440600104406002044022
:1013D0000C00000003000000700004407001044095
:1013E000700204400C000000030000007400044080
:1013F00074010440740204400C000000030000006B
:10140000400004404400044040010440FFFFFFFF4F
:10141000400204404402044018000000060000009E
:101420002C4887460000000000000000000000007B
:1014300000000000000000000000000000000000AC
:10144000254887460000000000000000234887462A
:1014500023488746234887462348874623488746AC
:10146000234887462348874623488746234887469C
:1014700023488746000000002248874622488746C6
:101480002248874622488746224887462248874680
:101490002248874622488746224887462248874670
:1014A0002248874622488746224887462248874660
:1014B0002248874622488746224887462248874650
:1014C00022488746224887460000000000000000AE
:1014D00020488746911000109110001091100010C4
:1014E0009110001091100010911000109110001038
:1014F0009110001091100010911000109110001028
:101500009110001091100010911000109110001017
:101510009110001091100010911000109110001007
:1015200091100010911000109110001091100010F7
:1015300091100010911000109110001091100010E7
:1015400091100010911000109110001091100010D7
:08155000911000109110001031
:04155800000000008F
:0400000510001019BE
:00000001FF
